{
  "contractName": "Vote",
  "abi": [
    {
      "constant": true,
      "inputs": [],
      "name": "votingPrivateKey",
      "outputs": [
        {
          "name": "",
          "type": "string"
        }
      ],
      "payable": false,
      "stateMutability": "view",
      "type": "function"
    },
    {
      "constant": true,
      "inputs": [
        {
          "name": "",
          "type": "uint256"
        }
      ],
      "name": "candidates",
      "outputs": [
        {
          "name": "description",
          "type": "string"
        },
        {
          "name": "image",
          "type": "string"
        }
      ],
      "payable": false,
      "stateMutability": "view",
      "type": "function"
    },
    {
      "constant": true,
      "inputs": [],
      "name": "votingPublicKey",
      "outputs": [
        {
          "name": "",
          "type": "string"
        }
      ],
      "payable": false,
      "stateMutability": "view",
      "type": "function"
    },
    {
      "constant": true,
      "inputs": [],
      "name": "owner",
      "outputs": [
        {
          "name": "",
          "type": "address"
        }
      ],
      "payable": false,
      "stateMutability": "view",
      "type": "function"
    },
    {
      "constant": true,
      "inputs": [],
      "name": "votingHasStarted",
      "outputs": [
        {
          "name": "",
          "type": "bool"
        }
      ],
      "payable": false,
      "stateMutability": "view",
      "type": "function"
    },
    {
      "constant": true,
      "inputs": [],
      "name": "votingHasEnded",
      "outputs": [
        {
          "name": "",
          "type": "bool"
        }
      ],
      "payable": false,
      "stateMutability": "view",
      "type": "function"
    },
    {
      "constant": true,
      "inputs": [
        {
          "name": "",
          "type": "uint256"
        }
      ],
      "name": "encryptedVotes",
      "outputs": [
        {
          "name": "",
          "type": "string"
        }
      ],
      "payable": false,
      "stateMutability": "view",
      "type": "function"
    },
    {
      "inputs": [],
      "payable": false,
      "stateMutability": "nonpayable",
      "type": "constructor"
    },
    {
      "constant": false,
      "inputs": [
        {
          "name": "publicKey",
          "type": "string"
        },
        {
          "name": "encryptedPrivateKey",
          "type": "string"
        }
      ],
      "name": "publishWallet",
      "outputs": [],
      "payable": false,
      "stateMutability": "nonpayable",
      "type": "function"
    },
    {
      "constant": false,
      "inputs": [
        {
          "name": "description",
          "type": "string"
        },
        {
          "name": "image",
          "type": "string"
        }
      ],
      "name": "addCandidate",
      "outputs": [
        {
          "name": "candidateId",
          "type": "uint256"
        }
      ],
      "payable": false,
      "stateMutability": "nonpayable",
      "type": "function"
    },
    {
      "constant": false,
      "inputs": [
        {
          "name": "votingAddresses",
          "type": "address[]"
        },
        {
          "name": "publicKey",
          "type": "string"
        }
      ],
      "name": "beginVoting",
      "outputs": [],
      "payable": false,
      "stateMutability": "nonpayable",
      "type": "function"
    },
    {
      "constant": false,
      "inputs": [
        {
          "name": "privateKey",
          "type": "string"
        }
      ],
      "name": "endVoting",
      "outputs": [],
      "payable": false,
      "stateMutability": "nonpayable",
      "type": "function"
    },
    {
      "constant": true,
      "inputs": [
        {
          "name": "publicKey",
          "type": "string"
        }
      ],
      "name": "getWallet",
      "outputs": [
        {
          "name": "encryptedPrivateKey",
          "type": "string"
        }
      ],
      "payable": false,
      "stateMutability": "view",
      "type": "function"
    },
    {
      "constant": false,
      "inputs": [
        {
          "name": "encryptedVote",
          "type": "string"
        }
      ],
      "name": "submitVote",
      "outputs": [],
      "payable": false,
      "stateMutability": "nonpayable",
      "type": "function"
    },
    {
      "constant": true,
      "inputs": [
        {
          "name": "addr",
          "type": "address"
        }
      ],
      "name": "isVoteAvailable",
      "outputs": [
        {
          "name": "available",
          "type": "bool"
        }
      ],
      "payable": false,
      "stateMutability": "view",
      "type": "function"
    },
    {
      "constant": true,
      "inputs": [],
      "name": "getNumberOfCandidates",
      "outputs": [
        {
          "name": "numberOfCandidates",
          "type": "uint256"
        }
      ],
      "payable": false,
      "stateMutability": "view",
      "type": "function"
    },
    {
      "constant": true,
      "inputs": [
        {
          "name": "candidateId",
          "type": "uint256"
        }
      ],
      "name": "getCandidate",
      "outputs": [
        {
          "name": "description",
          "type": "string"
        },
        {
          "name": "image",
          "type": "string"
        }
      ],
      "payable": false,
      "stateMutability": "view",
      "type": "function"
    }
  ],
  "bytecode": "0x6060604052341561000f57600080fd5b336000806101000a81548173ffffffffffffffffffffffffffffffffffffffff021916908373ffffffffffffffffffffffffffffffffffffffff1602179055506116108061005e6000396000f3006060604052600436106100e6576000357c0100000000000000000000000000000000000000000000000000000000900463ffffffff1680631a479afb146100eb57806326541b56146101795780633477ee2e1461022d57806335b8e8201461036f5780633b00a3e3146104775780633ded8213146104d4578063425b9a8b1461053157806355f58869146105d15780635d21914b14610622578063777f8ab7146106bf5780637a84d13e1461074d5780638da5cb5b146107765780638faf9312146107cb578063a4e2df66146107f8578063dde6188c146108ce578063fde315bd146108fb575b600080fd5b34156100f657600080fd5b6100fe610997565b6040518080602001828103825283818151815260200191508051906020019080838360005b8381101561013e578082015181840152602081019050610123565b50505050905090810190601f16801561016b5780820380516001836020036101000a031916815260200191505b509250505060405180910390f35b341561018457600080fd5b610217600480803590602001908201803590602001908080601f0160208091040260200160405190810160405280939291908181526020018383808284378201915050505050509190803590602001908201803590602001908080601f01602080910402602001604051908101604052809392919081815260200183838082843782019150505050505091905050610a35565b6040518082815260200191505060405180910390f35b341561023857600080fd5b61024e6004808035906020019091905050610b16565b6040518080602001806020018381038352858181546001816001161561010002031660029004815260200191508054600181600116156101000203166002900480156102db5780601f106102b0576101008083540402835291602001916102db565b820191906000526020600020905b8154815290600101906020018083116102be57829003601f168201915b505083810382528481815460018160011615610100020316600290048152602001915080546001816001161561010002031660029004801561035e5780601f106103335761010080835404028352916020019161035e565b820191906000526020600020905b81548152906001019060200180831161034157829003601f168201915b505094505050505060405180910390f35b341561037a57600080fd5b6103906004808035906020019091905050610b47565b604051808060200180602001838103835285818151815260200191508051906020019080838360005b838110156103d45780820151818401526020810190506103b9565b50505050905090810190601f1680156104015780820380516001836020036101000a031916815260200191505b50838103825284818151815260200191508051906020019080838360005b8381101561043a57808201518184015260208101905061041f565b50505050905090810190601f1680156104675780820380516001836020036101000a031916815260200191505b5094505050505060405180910390f35b341561048257600080fd5b6104d2600480803590602001908201803590602001908080601f01602080910402602001604051908101604052809392919081815260200183838082843782019150505050505091905050610cd5565b005b34156104df57600080fd5b61052f600480803590602001908201803590602001908080601f01602080910402602001604051908101604052809392919081815260200183838082843782019150505050505091905050610d8f565b005b341561053c57600080fd5b6105cf600480803590602001908201803590602001908080601f0160208091040260200160405190810160405280939291908181526020018383808284378201915050505050509190803590602001908201803590602001908080601f01602080910402602001604051908101604052809392919081815260200183838082843782019150505050505091905050610ea8565b005b34156105dc57600080fd5b610608600480803573ffffffffffffffffffffffffffffffffffffffff16906020019091905050610f99565b604051808215151515815260200191505060405180910390f35b341561062d57600080fd5b6106bd60048080359060200190820180359060200190808060200260200160405190810160405280939291908181526020018383602002808284378201915050505050509190803590602001908201803590602001908080601f01602080910402602001604051908101604052809392919081815260200183838082843782019150505050505091905050611025565b005b34156106ca57600080fd5b6106d2611155565b6040518080602001828103825283818151815260200191508051906020019080838360005b838110156107125780820151818401526020810190506106f7565b50505050905090810190601f16801561073f5780820380516001836020036101000a031916815260200191505b509250505060405180910390f35b341561075857600080fd5b6107606111f3565b6040518082815260200191505060405180910390f35b341561078157600080fd5b610789611200565b604051808273ffffffffffffffffffffffffffffffffffffffff1673ffffffffffffffffffffffffffffffffffffffff16815260200191505060405180910390f35b34156107d657600080fd5b6107de611225565b604051808215151515815260200191505060405180910390f35b341561080357600080fd5b610853600480803590602001908201803590602001908080601f01602080910402602001604051908101604052809392919081815260200183838082843782019150505050505091905050611238565b6040518080602001828103825283818151815260200191508051906020019080838360005b83811015610893578082015181840152602081019050610878565b50505050905090810190601f1680156108c05780820380516001836020036101000a031916815260200191505b509250505060405180910390f35b34156108d957600080fd5b6108e161134b565b604051808215151515815260200191505060405180910390f35b341561090657600080fd5b61091c600480803590602001909190505061135e565b6040518080602001828103825283818151815260200191508051906020019080838360005b8381101561095c578082015181840152602081019050610941565b50505050905090810190601f1680156109895780820380516001836020036101000a031916815260200191505b509250505060405180910390f35b60028054600181600116156101000203166002900480601f016020809104026020016040519081016040528092919081815260200182805460018160011615610100020316600290048015610a2d5780601f10610a0257610100808354040283529160200191610a2d565b820191906000526020600020905b815481529060010190602001808311610a1057829003601f168201915b505050505081565b6000806000809054906101000a900473ffffffffffffffffffffffffffffffffffffffff1673ffffffffffffffffffffffffffffffffffffffff163373ffffffffffffffffffffffffffffffffffffffff161415610b0f57600060149054906101000a900460ff161515610b0e5760038054809190600101610ab7919061141a565b9150600382815481101515610ac857fe5b9060005260206000209060020201905083816000019080519060200190610af092919061144c565b5082816001019080519060200190610b0992919061144c565b508191505b5b5092915050565b600381815481101515610b2557fe5b9060005260206000209060020201600091509050806000019080600101905082565b610b4f6114cc565b610b576114cc565b600060038054905084101515610b6c57600080fd5b600384815481101515610b7b57fe5b906000526020600020906002020190508060000181600101818054600181600116156101000203166002900480601f016020809104026020016040519081016040528092919081815260200182805460018160011615610100020316600290048015610c285780601f10610bfd57610100808354040283529160200191610c28565b820191906000526020600020905b815481529060010190602001808311610c0b57829003601f168201915b50505050509150808054600181600116156101000203166002900480601f016020809104026020016040519081016040528092919081815260200182805460018160011615610100020316600290048015610cc45780601f10610c9957610100808354040283529160200191610cc4565b820191906000526020600020905b815481529060010190602001808311610ca757829003601f168201915b505050505090509250925050915091565b6000809054906101000a900473ffffffffffffffffffffffffffffffffffffffff1673ffffffffffffffffffffffffffffffffffffffff163373ffffffffffffffffffffffffffffffffffffffff161415610d8c57600060149054906101000a900460ff168015610d535750600060159054906101000a900460ff16155b15610d8b576001600060156101000a81548160ff0219169083151502179055508060029080519060200190610d8992919061144c565b505b5b50565b600060149054906101000a900460ff168015610db85750600060159054906101000a900460ff16155b15610ea557600560003373ffffffffffffffffffffffffffffffffffffffff1673ffffffffffffffffffffffffffffffffffffffff16815260200190815260200160002060009054906101000a900460ff1615610ea45760068054806001018281610e2391906114e0565b916000526020600020900160008390919091509080519060200190610e4992919061144c565b50506000600560003373ffffffffffffffffffffffffffffffffffffffff1673ffffffffffffffffffffffffffffffffffffffff16815260200190815260200160002060006101000a81548160ff0219169083151502179055505b5b50565b6000809054906101000a900473ffffffffffffffffffffffffffffffffffffffff1673ffffffffffffffffffffffffffffffffffffffff163373ffffffffffffffffffffffffffffffffffffffff161415610f9557600060149054906101000a900460ff161515610f9457806004836040518082805190602001908083835b602083101515610f4c5780518252602082019150602081019050602083039250610f27565b6001836020036101000a03801982511681845116808217855250505050505090500191505090815260200160405180910390209080519060200190610f9292919061144c565b505b5b5050565b60008060149054906101000a900460ff161580610fc25750600060159054906101000a900460ff165b15610fd05760009050611020565b600560008373ffffffffffffffffffffffffffffffffffffffff1673ffffffffffffffffffffffffffffffffffffffff16815260200190815260200160002060009054906101000a900460ff1690505b919050565b60008060009054906101000a900473ffffffffffffffffffffffffffffffffffffffff1673ffffffffffffffffffffffffffffffffffffffff163373ffffffffffffffffffffffffffffffffffffffff16141561115057600060149054906101000a900460ff16151561114f576001600060146101000a81548160ff021916908315150217905550600090505b82518110156111375760016005600085848151811015156110cf57fe5b9060200190602002015173ffffffffffffffffffffffffffffffffffffffff1673ffffffffffffffffffffffffffffffffffffffff16815260200190815260200160002060006101000a81548160ff02191690831515021790555080806001019150506110b2565b816001908051906020019061114d92919061144c565b505b5b505050565b60018054600181600116156101000203166002900480601f0160208091040260200160405190810160405280929190818152602001828054600181600116156101000203166002900480156111eb5780601f106111c0576101008083540402835291602001916111eb565b820191906000526020600020905b8154815290600101906020018083116111ce57829003601f168201915b505050505081565b6000600380549050905090565b6000809054906101000a900473ffffffffffffffffffffffffffffffffffffffff1681565b600060149054906101000a900460ff1681565b6112406114cc565b6004826040518082805190602001908083835b6020831015156112785780518252602082019150602081019050602083039250611253565b6001836020036101000a03801982511681845116808217855250505050505090500191505090815260200160405180910390208054600181600116156101000203166002900480601f01602080910402602001604051908101604052809291908181526020018280546001816001161561010002031660029004801561133f5780601f106113145761010080835404028352916020019161133f565b820191906000526020600020905b81548152906001019060200180831161132257829003601f168201915b50505050509050919050565b600060159054906101000a900460ff1681565b60068181548110151561136d57fe5b90600052602060002090016000915090508054600181600116156101000203166002900480601f0160208091040260200160405190810160405280929190818152602001828054600181600116156101000203166002900480156114125780601f106113e757610100808354040283529160200191611412565b820191906000526020600020905b8154815290600101906020018083116113f557829003601f168201915b505050505081565b81548183558181151161144757600202816002028360005260206000209182019101611446919061150c565b5b505050565b828054600181600116156101000203166002900490600052602060002090601f016020900481019282601f1061148d57805160ff19168380011785556114bb565b828001600101855582156114bb579182015b828111156114ba57825182559160200191906001019061149f565b5b5090506114c8919061154b565b5090565b602060405190810160405280600081525090565b815481835581811511611507578183600052602060002091820191016115069190611570565b5b505050565b61154891905b80821115611544576000808201600061152b919061159c565b60018201600061153b919061159c565b50600201611512565b5090565b90565b61156d91905b80821115611569576000816000905550600101611551565b5090565b90565b61159991905b80821115611595576000818161158c919061159c565b50600101611576565b5090565b90565b50805460018160011615610100020316600290046000825580601f106115c257506115e1565b601f0160209004906000526020600020908101906115e0919061154b565b5b505600a165627a7a72305820702b0a6a65a81aeda526a01419a8d82e4d9a22e28b38eacef2af4adf0bd2320c0029",
  "source": "pragma solidity ^0.4.19;\n\ncontract Vote {\n  address public owner;\n  bool public votingHasStarted;\n  bool public votingHasEnded;\n  string public votingPublicKey;\n  string public votingPrivateKey;\n  Candidate[] public candidates;\n\n  mapping (string => string) addressEncryptedPrivateKeyMapping;\n  mapping (address => bool) canVoteMapping;\n\n  string[] public encryptedVotes;\n\n  // for storing a potential candidate\n  struct Candidate {\n    string description;\n    string image; // base64 encoded (small!) image\n  }\n\n  // only owner can call\n  modifier restricted() {\n    if (msg.sender == owner) _;\n  }\n\n  // can only be called pre voting period\n  modifier preVotingPeriod() {\n    if (!votingHasStarted) _;\n  }\n\n  // can only be called during voting period\n  modifier votingPeriod() {\n    if (votingHasStarted && !votingHasEnded) _;\n  }\n\n  // can only be called if the sender is allowed to vote and has not already\n  modifier canVote() {\n    if (canVoteMapping[msg.sender]) _;\n  }\n\n  // constructor\n  function Vote() public {\n    owner = msg.sender;\n  }\n\n  /* GOVERNMENT */\n\n  // publish the encrypted voting wallet for a given citizen address\n  function publishWallet(string publicKey, string encryptedPrivateKey) restricted() preVotingPeriod() public {\n    addressEncryptedPrivateKeyMapping[publicKey] = encryptedPrivateKey;\n  }\n\n  // add a new candidate\n  function addCandidate(string description, string image) restricted() preVotingPeriod() public returns (uint candidateId) {\n    candidateId = candidates.length++;\n    Candidate storage c = candidates[candidateId];\n    c.description = description;\n    c.image = image;\n    return candidateId;\n  }\n\n  // begin the voting period\n  function beginVoting(address[] votingAddresses, string publicKey) restricted() preVotingPeriod() public {\n    votingHasStarted = true;\n    for (uint i = 0; i < votingAddresses.length; i++) {\n      canVoteMapping[votingAddresses[i]] = true;\n    }\n    votingPublicKey = publicKey;\n  }\n\n  // end the voting period\n  function endVoting(string privateKey) restricted() votingPeriod() public {\n    votingHasEnded = true;\n    votingPrivateKey = privateKey;\n  }\n\n  /* CITIZENS */\n\n  function getWallet(string publicKey) public view returns (string encryptedPrivateKey) {\n    return addressEncryptedPrivateKeyMapping[publicKey];\n  }\n\n  function submitVote(string encryptedVote) votingPeriod() canVote() public {\n    encryptedVotes.push(encryptedVote);\n    canVoteMapping[msg.sender] = false;\n  }\n\n  function isVoteAvailable(address addr) public view returns (bool available) {\n    if (!votingHasStarted || votingHasEnded) {\n      return false;\n    }\n    return canVoteMapping[addr];\n  }\n\n  /* ANYBODY */\n\n  function getNumberOfCandidates() public view returns (uint numberOfCandidates) {\n    return candidates.length;\n  }\n\n  function getCandidate(uint candidateId) public view returns (string description, string image) {\n    require(candidateId < candidates.length);\n    Candidate c = candidates[candidateId];\n    return (c.description, c.image);\n  }\n}\n",
  "sourcePath": "/Users/sprusr/Code/truffle-vue-webpack/contracts/Vote.sol",
  "compiler": {
    "name": "solc",
    "version": "0.4.19+commit.c4cbbb05.Emscripten.clang"
  },
  "schemaVersion": "1.0.1",
  "updatedAt": "2018-02-18T13:46:21.326Z"
}